{
	"contractName": "CompanyContract",
	"abi": [
		{
			"inputs": [
				{
					"internalType": "contract ISuperfluid",
					"name": "host",
					"type": "address"
				},
				{
					"internalType": "contract IConstantFlowAgreementV1",
					"name": "cfa",
					"type": "address"
				},
				{
					"internalType": "contract ISuperToken",
					"name": "acceptedToken",
					"type": "address"
				},
				{
					"internalType": "address",
					"name": "owner",
					"type": "address"
				}
			],
			"stateMutability": "nonpayable",
			"type": "constructor"
		},
		{
			"inputs": [
				{
					"internalType": "contract ISuperToken",
					"name": "",
					"type": "address"
				},
				{
					"internalType": "address",
					"name": "",
					"type": "address"
				},
				{
					"internalType": "bytes32",
					"name": "",
					"type": "bytes32"
				},
				{
					"internalType": "bytes",
					"name": "",
					"type": "bytes"
				},
				{
					"internalType": "bytes",
					"name": "",
					"type": "bytes"
				}
			],
			"name": "beforeAgreementCreated",
			"outputs": [
				{
					"internalType": "bytes",
					"name": "",
					"type": "bytes"
				}
			],
			"stateMutability": "view",
			"type": "function"
		},
		{
			"inputs": [
				{
					"internalType": "contract ISuperToken",
					"name": "",
					"type": "address"
				},
				{
					"internalType": "address",
					"name": "",
					"type": "address"
				},
				{
					"internalType": "bytes32",
					"name": "",
					"type": "bytes32"
				},
				{
					"internalType": "bytes",
					"name": "",
					"type": "bytes"
				},
				{
					"internalType": "bytes",
					"name": "",
					"type": "bytes"
				}
			],
			"name": "beforeAgreementTerminated",
			"outputs": [
				{
					"internalType": "bytes",
					"name": "",
					"type": "bytes"
				}
			],
			"stateMutability": "view",
			"type": "function"
		},
		{
			"inputs": [
				{
					"internalType": "contract ISuperToken",
					"name": "",
					"type": "address"
				},
				{
					"internalType": "address",
					"name": "",
					"type": "address"
				},
				{
					"internalType": "bytes32",
					"name": "",
					"type": "bytes32"
				},
				{
					"internalType": "bytes",
					"name": "",
					"type": "bytes"
				},
				{
					"internalType": "bytes",
					"name": "",
					"type": "bytes"
				}
			],
			"name": "beforeAgreementUpdated",
			"outputs": [
				{
					"internalType": "bytes",
					"name": "",
					"type": "bytes"
				}
			],
			"stateMutability": "view",
			"type": "function"
		},
		{
			"inputs": [],
			"name": "startWorking",
			"outputs": [],
			"stateMutability": "nonpayable",
			"type": "function"
		},
		{
			"inputs": [],
			"name": "stopWorking",
			"outputs": [],
			"stateMutability": "nonpayable",
			"type": "function"
		},
		{
			"inputs": [
				{
					"internalType": "string",
					"name": "name",
					"type": "string"
				},
				{
					"internalType": "address",
					"name": "empAddress",
					"type": "address"
				},
				{
					"internalType": "int96",
					"name": "salaryFlowRate",
					"type": "int96"
				}
			],
			"name": "upsertEmployee",
			"outputs": [],
			"stateMutability": "nonpayable",
			"type": "function"
		},
		{
			"inputs": [
				{
					"internalType": "address",
					"name": "empAddress",
					"type": "address"
				}
			],
			"name": "removeEmployee",
			"outputs": [],
			"stateMutability": "nonpayable",
			"type": "function"
		},
		{
			"inputs": [],
			"name": "getEmployees",
			"outputs": [
				{
					"components": [
						{
							"internalType": "string",
							"name": "name",
							"type": "string"
						},
						{
							"internalType": "int96",
							"name": "salaryFlowRate",
							"type": "int96"
						},
						{
							"internalType": "address payable",
							"name": "empAddress",
							"type": "address"
						},
						{
							"internalType": "bool",
							"name": "isEmployed",
							"type": "bool"
						},
						{
							"internalType": "bool",
							"name": "isWorking",
							"type": "bool"
						}
					],
					"internalType": "struct CompanyContract.Employee[]",
					"name": "",
					"type": "tuple[]"
				}
			],
			"stateMutability": "view",
			"type": "function"
		},
		{
			"inputs": [],
			"name": "getActiveInFlowRate",
			"outputs": [
				{
					"internalType": "int96",
					"name": "",
					"type": "int96"
				}
			],
			"stateMutability": "view",
			"type": "function"
		},
		{
			"inputs": [],
			"name": "getActiveOutFlowRate",
			"outputs": [
				{
					"internalType": "int96",
					"name": "",
					"type": "int96"
				}
			],
			"stateMutability": "view",
			"type": "function"
		},
		{
			"inputs": [],
			"name": "getOwner",
			"outputs": [
				{
					"internalType": "address",
					"name": "",
					"type": "address"
				}
			],
			"stateMutability": "view",
			"type": "function"
		},
		{
			"inputs": [
				{
					"internalType": "contract ISuperToken",
					"name": "_superToken",
					"type": "address"
				},
				{
					"internalType": "address",
					"name": "_agreementClass",
					"type": "address"
				},
				{
					"internalType": "bytes32",
					"name": "",
					"type": "bytes32"
				},
				{
					"internalType": "bytes",
					"name": "",
					"type": "bytes"
				},
				{
					"internalType": "bytes",
					"name": "",
					"type": "bytes"
				},
				{
					"internalType": "bytes",
					"name": "_ctx",
					"type": "bytes"
				}
			],
			"name": "afterAgreementCreated",
			"outputs": [
				{
					"internalType": "bytes",
					"name": "newCtx",
					"type": "bytes"
				}
			],
			"stateMutability": "nonpayable",
			"type": "function"
		},
		{
			"inputs": [
				{
					"internalType": "contract ISuperToken",
					"name": "_superToken",
					"type": "address"
				},
				{
					"internalType": "address",
					"name": "_agreementClass",
					"type": "address"
				},
				{
					"internalType": "bytes32",
					"name": "",
					"type": "bytes32"
				},
				{
					"internalType": "bytes",
					"name": "",
					"type": "bytes"
				},
				{
					"internalType": "bytes",
					"name": "",
					"type": "bytes"
				},
				{
					"internalType": "bytes",
					"name": "_ctx",
					"type": "bytes"
				}
			],
			"name": "afterAgreementUpdated",
			"outputs": [
				{
					"internalType": "bytes",
					"name": "newCtx",
					"type": "bytes"
				}
			],
			"stateMutability": "nonpayable",
			"type": "function"
		},
		{
			"inputs": [
				{
					"internalType": "contract ISuperToken",
					"name": "",
					"type": "address"
				},
				{
					"internalType": "address",
					"name": "",
					"type": "address"
				},
				{
					"internalType": "bytes32",
					"name": "",
					"type": "bytes32"
				},
				{
					"internalType": "bytes",
					"name": "",
					"type": "bytes"
				},
				{
					"internalType": "bytes",
					"name": "",
					"type": "bytes"
				},
				{
					"internalType": "bytes",
					"name": "_ctx",
					"type": "bytes"
				}
			],
			"name": "afterAgreementTerminated",
			"outputs": [
				{
					"internalType": "bytes",
					"name": "newCtx",
					"type": "bytes"
				}
			],
			"stateMutability": "nonpayable",
			"type": "function"
		}
	],
	"bytecode": "0x60806040523480156200001157600080fd5b5060405162003202380380620032028339818101604052810190620000379190620002f6565b600073ffffffffffffffffffffffffffffffffffffffff168473ffffffffffffffffffffffffffffffffffffffff1614156200006f57fe5b600073ffffffffffffffffffffffffffffffffffffffff168373ffffffffffffffffffffffffffffffffffffffff161415620000a757fe5b600073ffffffffffffffffffffffffffffffffffffffff168273ffffffffffffffffffffffffffffffffffffffff161415620000df57fe5b80600360006101000a81548173ffffffffffffffffffffffffffffffffffffffff021916908373ffffffffffffffffffffffffffffffffffffffff16021790555083600460006101000a81548173ffffffffffffffffffffffffffffffffffffffff021916908373ffffffffffffffffffffffffffffffffffffffff16021790555082600560006101000a81548173ffffffffffffffffffffffffffffffffffffffff021916908373ffffffffffffffffffffffffffffffffffffffff16021790555081600660006101000a81548173ffffffffffffffffffffffffffffffffffffffff021916908373ffffffffffffffffffffffffffffffffffffffff160217905550600064100000000064040000000064010000000060011717179050600460009054906101000a900473ffffffffffffffffffffffffffffffffffffffff1673ffffffffffffffffffffffffffffffffffffffff1663ad3915c8826040518263ffffffff1660e01b81526004016200025b919062000373565b600060405180830381600087803b1580156200027657600080fd5b505af11580156200028b573d6000803e3d6000fd5b50505050505050505062000472565b600081519050620002ab816200040a565b92915050565b600081519050620002c28162000424565b92915050565b600081519050620002d9816200043e565b92915050565b600081519050620002f08162000458565b92915050565b600080600080608085870312156200030d57600080fd5b60006200031d87828801620002df565b94505060206200033087828801620002b1565b93505060406200034387828801620002c8565b925050606062000356878288016200029a565b91505092959194509250565b6200036d8162000400565b82525050565b60006020820190506200038a600083018462000362565b92915050565b60006200039d82620003e0565b9050919050565b6000620003b18262000390565b9050919050565b6000620003c58262000390565b9050919050565b6000620003d98262000390565b9050919050565b600073ffffffffffffffffffffffffffffffffffffffff82169050919050565b6000819050919050565b620004158162000390565b81146200042157600080fd5b50565b6200042f81620003a4565b81146200043b57600080fd5b50565b6200044981620003b8565b81146200045557600080fd5b50565b6200046381620003cc565b81146200046f57600080fd5b50565b612d8080620004826000396000f3fe608060405234801561001057600080fd5b50600436106100ea5760003560e01c8063884d1f401161008c57806399495947116100665780639949594714610273578063aaa2badf1461027d578063d108177a14610287578063d86ed3e5146102a3576100ea565b8063884d1f4014610207578063893d20e814610237578063934751f614610255576100ea565b80634abefa36116100c85780634abefa361461016d57806353c11f991461018b5780635e81370d146101bb5780635f9e7d77146101d7576100ea565b8063127af7b6146100ef578063230dbd291461010d57806330d9c9151461013d575b600080fd5b6100f76102d3565b60405161010491906129b3565b60405180910390f35b61012760048036038101906101229190612103565b610332565b6040516101349190612841565b60405180910390f35b61015760048036038101906101529190612053565b6105ae565b6040516101649190612841565b60405180910390f35b6101756105eb565b604051610182919061281f565b60405180910390f35b6101a560048036038101906101a09190612103565b610897565b6040516101b29190612841565b60405180910390f35b6101d560048036038101906101d0919061220b565b6109b2565b005b6101f160048036038101906101ec9190612053565b610f74565b6040516101fe9190612841565b60405180910390f35b610221600480360381019061021c9190612053565b610fb1565b60405161022e9190612841565b60405180910390f35b61023f610fee565b60405161024c9190612804565b60405180910390f35b61025d611060565b60405161026a91906129b3565b60405180910390f35b61027b6110bf565b005b6102856113fe565b005b6102a1600480360381019061029c9190611fc0565b611843565b005b6102bd60048036038101906102b89190612103565b6118e8565b6040516102ca9190612841565b60405180910390f35b60006102de33611b64565b61031d576040517f08c379a000000000000000000000000000000000000000000000000000000000815260040161031490612a6e565b60405180910390fd5b600260009054906101000a9004600b0b905090565b6060898961033f82611bbe565b61037e576040517f08c379a000000000000000000000000000000000000000000000000000000000815260040161037590612a2e565b60405180910390fd5b61038781611c18565b6103c6576040517f08c379a00000000000000000000000000000000000000000000000000000000081526004016103bd90612aae565b60405180910390fd5b600460009054906101000a900473ffffffffffffffffffffffffffffffffffffffff1673ffffffffffffffffffffffffffffffffffffffff163373ffffffffffffffffffffffffffffffffffffffff1614610456576040517f08c379a000000000000000000000000000000000000000000000000000000000815260040161044d90612a4e565b60405180910390fd5b600560009054906101000a900473ffffffffffffffffffffffffffffffffffffffff1673ffffffffffffffffffffffffffffffffffffffff1663e8e7e2d1600660009054906101000a900473ffffffffffffffffffffffffffffffffffffffff16306040518363ffffffff1660e01b81526004016104d59291906128a6565b60206040518083038186803b1580156104ed57600080fd5b505afa158015610501573d6000803e3d6000fd5b505050506040513d601f19601f8201168201806040525081019061052591906121e2565b600260006101000a8154816bffffffffffffffffffffffff0219169083600b0b6bffffffffffffffffffffffff16021790555084848080601f016020809104026020016040519081016040528093929190818152602001838380828437600081840152601f19601f82011690508083019250505050505050925050509998505050505050505050565b60606040517f08c379a00000000000000000000000000000000000000000000000000000000081526004016105e290612aee565b60405180910390fd5b60606105f633611b64565b610635576040517f08c379a000000000000000000000000000000000000000000000000000000000815260040161062c90612a6e565b60405180910390fd5b606060018054905067ffffffffffffffff8111801561065357600080fd5b5060405190808252806020026020018201604052801561068d57816020015b61067a611d71565b8152602001906001900390816106725790505b50905060005b60018054905081101561088f57600080600183815481106106b057fe5b9060005260206000200160009054906101000a900473ffffffffffffffffffffffffffffffffffffffff1673ffffffffffffffffffffffffffffffffffffffff1673ffffffffffffffffffffffffffffffffffffffff1681526020019081526020016000206040518060a0016040529081600082018054600181600116156101000203166002900480601f0160208091040260200160405190810160405280929190818152602001828054600181600116156101000203166002900480156107b95780601f1061078e576101008083540402835291602001916107b9565b820191906000526020600020905b81548152906001019060200180831161079c57829003601f168201915b505050505081526020016001820160009054906101000a9004600b0b600b0b600b0b815260200160018201600c9054906101000a900473ffffffffffffffffffffffffffffffffffffffff1673ffffffffffffffffffffffffffffffffffffffff1673ffffffffffffffffffffffffffffffffffffffff1681526020016002820160009054906101000a900460ff161515151581526020016002820160019054906101000a900460ff16151515158152505082828151811061087757fe5b60200260200101819052508080600101915050610693565b508091505090565b6060600460009054906101000a900473ffffffffffffffffffffffffffffffffffffffff1673ffffffffffffffffffffffffffffffffffffffff163373ffffffffffffffffffffffffffffffffffffffff1614610929576040517f08c379a000000000000000000000000000000000000000000000000000000000815260040161092090612a4e565b60405180910390fd5b6000600260006101000a8154816bffffffffffffffffffffffff0219169083600b0b6bffffffffffffffffffffffff16021790555082828080601f016020809104026020016040519081016040528093929190818152602001838380828437600081840152601f19601f8201169050808301925050505050505090509998505050505050505050565b6109bb33611b64565b6109fa576040517f08c379a00000000000000000000000000000000000000000000000000000000081526004016109f190612a6e565b60405180910390fd5b600081600b0b1215610a41576040517f08c379a0000000000000000000000000000000000000000000000000000000008152600401610a3890612a0e565b60405180910390fd5b60008060008473ffffffffffffffffffffffffffffffffffffffff1673ffffffffffffffffffffffffffffffffffffffff16815260200190815260200160002060020160009054906101000a900460ff16905060008060008573ffffffffffffffffffffffffffffffffffffffff1673ffffffffffffffffffffffffffffffffffffffff16815260200190815260200160002060020160019054906101000a900460ff16905060008060008673ffffffffffffffffffffffffffffffffffffffff1673ffffffffffffffffffffffffffffffffffffffff16815260200190815260200160002060010160009054906101000a9004600b0b9050818015610b4d575083600b0b81600b0b14155b15610d5a57600460009054906101000a900473ffffffffffffffffffffffffffffffffffffffff1673ffffffffffffffffffffffffffffffffffffffff166339255d5b600560009054906101000a900473ffffffffffffffffffffffffffffffffffffffff166350209a6260e01b600660009054906101000a900473ffffffffffffffffffffffffffffffffffffffff168989600067ffffffffffffffff81118015610bf857600080fd5b506040519080825280601f01601f191660200182016040528015610c2b5781602001600182028036833780820191505090505b50604051602401610c3f9493929190612967565b604051602081830303815290604052907bffffffffffffffffffffffffffffffffffffffffffffffffffffffff19166020820180517bffffffffffffffffffffffffffffffffffffffffffffffffffffffff83818316178352505050506040518363ffffffff1660e01b8152600401610cb9929190612863565b600060405180830381600087803b158015610cd357600080fd5b505af1158015610ce7573d6000803e3d6000fd5b505050506040513d6000823e3d601f19601f82011682018060405250810190610d109190612012565b508084036002600c8282829054906101000a9004600b0b0192506101000a8154816bffffffffffffffffffffffff0219169083600b0b6bffffffffffffffffffffffff1602179055505b82610dc3576001859080600181540180825580915050600190039060005260206000200160009091909190916101000a81548173ffffffffffffffffffffffffffffffffffffffff021916908373ffffffffffffffffffffffffffffffffffffffff1602179055505b6040518060a0016040528088888080601f016020809104026020016040519081016040528093929190818152602001838380828437600081840152601f19601f82011690508083019250505050505050815260200185600b0b81526020018673ffffffffffffffffffffffffffffffffffffffff1681526020016001151581526020018315158152506000808773ffffffffffffffffffffffffffffffffffffffff1673ffffffffffffffffffffffffffffffffffffffff1681526020019081526020016000206000820151816000019080519060200190610ea6929190611dbd565b5060208201518160010160006101000a8154816bffffffffffffffffffffffff0219169083600b0b6bffffffffffffffffffffffff160217905550604082015181600101600c6101000a81548173ffffffffffffffffffffffffffffffffffffffff021916908373ffffffffffffffffffffffffffffffffffffffff16021790555060608201518160020160006101000a81548160ff02191690831515021790555060808201518160020160016101000a81548160ff02191690831515021790555090505050505050505050565b60606040517f08c379a0000000000000000000000000000000000000000000000000000000008152600401610fa8906129ee565b60405180910390fd5b60606040517f08c379a0000000000000000000000000000000000000000000000000000000008152600401610fe590612ace565b60405180910390fd5b6000610ff933611b64565b611038576040517f08c379a000000000000000000000000000000000000000000000000000000000815260040161102f90612a6e565b60405180910390fd5b600360009054906101000a900473ffffffffffffffffffffffffffffffffffffffff16905090565b600061106b33611b64565b6110aa576040517f08c379a00000000000000000000000000000000000000000000000000000000081526004016110a190612a6e565b60405180910390fd5b6002600c9054906101000a9004600b0b905090565b6110c833611cc1565b611107576040517f08c379a00000000000000000000000000000000000000000000000000000000081526004016110fe906129ce565b60405180910390fd5b61111033611d19565b61114f576040517f08c379a0000000000000000000000000000000000000000000000000000000008152600401611146906129ce565b60405180910390fd5b60008060003373ffffffffffffffffffffffffffffffffffffffff1673ffffffffffffffffffffffffffffffffffffffff16815260200190815260200160002060020160016101000a81548160ff021916908315150217905550600460009054906101000a900473ffffffffffffffffffffffffffffffffffffffff1673ffffffffffffffffffffffffffffffffffffffff166339255d5b600560009054906101000a900473ffffffffffffffffffffffffffffffffffffffff1663b4b333c660e01b600660009054906101000a900473ffffffffffffffffffffffffffffffffffffffff163033600067ffffffffffffffff8111801561124f57600080fd5b506040519080825280601f01601f1916602001820160405280156112825781602001600182028036833780820191505090505b50604051602401611296949392919061291b565b604051602081830303815290604052907bffffffffffffffffffffffffffffffffffffffffffffffffffffffff19166020820180517bffffffffffffffffffffffffffffffffffffffffffffffffffffffff83818316178352505050506040518363ffffffff1660e01b8152600401611310929190612863565b600060405180830381600087803b15801561132a57600080fd5b505af115801561133e573d6000803e3d6000fd5b505050506040513d6000823e3d601f19601f820116820180604052508101906113679190612012565b506000803373ffffffffffffffffffffffffffffffffffffffff1673ffffffffffffffffffffffffffffffffffffffff16815260200190815260200160002060010160009054906101000a9004600b0b6002600c8282829054906101000a9004600b0b0392506101000a8154816bffffffffffffffffffffffff0219169083600b0b6bffffffffffffffffffffffff160217905550565b61140733611cc1565b611446576040517f08c379a000000000000000000000000000000000000000000000000000000000815260040161143d906129ce565b60405180910390fd5b61144f33611d19565b1561148f576040517f08c379a0000000000000000000000000000000000000000000000000000000008152600401611486906129ce565b60405180910390fd5b6000803373ffffffffffffffffffffffffffffffffffffffff1673ffffffffffffffffffffffffffffffffffffffff16815260200190815260200160002060010160009054906101000a9004600b0b6002600c9054906101000a9004600b0b01600b0b600260009054906101000a9004600b0b600b0b1215611546576040517f08c379a000000000000000000000000000000000000000000000000000000000815260040161153d90612a8e565b60405180910390fd5b60016000803373ffffffffffffffffffffffffffffffffffffffff1673ffffffffffffffffffffffffffffffffffffffff16815260200190815260200160002060020160016101000a81548160ff021916908315150217905550600460009054906101000a900473ffffffffffffffffffffffffffffffffffffffff1673ffffffffffffffffffffffffffffffffffffffff166339255d5b600560009054906101000a900473ffffffffffffffffffffffffffffffffffffffff166362fc305e60e01b600660009054906101000a900473ffffffffffffffffffffffffffffffffffffffff16336000803373ffffffffffffffffffffffffffffffffffffffff1673ffffffffffffffffffffffffffffffffffffffff16815260200190815260200160002060010160009054906101000a9004600b0b600067ffffffffffffffff8111801561169457600080fd5b506040519080825280601f01601f1916602001820160405280156116c75781602001600182028036833780820191505090505b506040516024016116db94939291906128cf565b604051602081830303815290604052907bffffffffffffffffffffffffffffffffffffffffffffffffffffffff19166020820180517bffffffffffffffffffffffffffffffffffffffffffffffffffffffff83818316178352505050506040518363ffffffff1660e01b8152600401611755929190612863565b600060405180830381600087803b15801561176f57600080fd5b505af1158015611783573d6000803e3d6000fd5b505050506040513d6000823e3d601f19601f820116820180604052508101906117ac9190612012565b506000803373ffffffffffffffffffffffffffffffffffffffff1673ffffffffffffffffffffffffffffffffffffffff16815260200190815260200160002060010160009054906101000a9004600b0b6002600c8282829054906101000a9004600b0b0192506101000a8154816bffffffffffffffffffffffff0219169083600b0b6bffffffffffffffffffffffff160217905550565b61184c33611b64565b61188b576040517f08c379a000000000000000000000000000000000000000000000000000000000815260040161188290612a6e565b60405180910390fd5b60008060008373ffffffffffffffffffffffffffffffffffffffff1673ffffffffffffffffffffffffffffffffffffffff16815260200190815260200160002060020160006101000a81548160ff02191690831515021790555050565b606089896118f582611bbe565b611934576040517f08c379a000000000000000000000000000000000000000000000000000000000815260040161192b90612a2e565b60405180910390fd5b61193d81611c18565b61197c576040517f08c379a000000000000000000000000000000000000000000000000000000000815260040161197390612aae565b60405180910390fd5b600460009054906101000a900473ffffffffffffffffffffffffffffffffffffffff1673ffffffffffffffffffffffffffffffffffffffff163373ffffffffffffffffffffffffffffffffffffffff1614611a0c576040517f08c379a0000000000000000000000000000000000000000000000000000000008152600401611a0390612a4e565b60405180910390fd5b600560009054906101000a900473ffffffffffffffffffffffffffffffffffffffff1673ffffffffffffffffffffffffffffffffffffffff1663e8e7e2d1600660009054906101000a900473ffffffffffffffffffffffffffffffffffffffff16306040518363ffffffff1660e01b8152600401611a8b9291906128a6565b60206040518083038186803b158015611aa357600080fd5b505afa158015611ab7573d6000803e3d6000fd5b505050506040513d601f19601f82011682018060405250810190611adb91906121e2565b600260006101000a8154816bffffffffffffffffffffffff0219169083600b0b6bffffffffffffffffffffffff16021790555084848080601f016020809104026020016040519081016040528093929190818152602001838380828437600081840152601f19601f82011690508083019250505050505050925050509998505050505050505050565b60008173ffffffffffffffffffffffffffffffffffffffff16600360009054906101000a900473ffffffffffffffffffffffffffffffffffffffff1673ffffffffffffffffffffffffffffffffffffffff16149050919050565b6000600660009054906101000a900473ffffffffffffffffffffffffffffffffffffffff1673ffffffffffffffffffffffffffffffffffffffff168273ffffffffffffffffffffffffffffffffffffffff16149050919050565b60007fa9214cc96615e0085d3bb077758db69497dc2dce3b2b1e97bc93c3d18d83efd38273ffffffffffffffffffffffffffffffffffffffff16637730599e6040518163ffffffff1660e01b815260040160206040518083038186803b158015611c8157600080fd5b505afa158015611c95573d6000803e3d6000fd5b505050506040513d601f19601f82011682018060405250810190611cb99190611fe9565b149050919050565b60008060008373ffffffffffffffffffffffffffffffffffffffff1673ffffffffffffffffffffffffffffffffffffffff16815260200190815260200160002060020160009054906101000a900460ff169050919050565b60008060008373ffffffffffffffffffffffffffffffffffffffff1673ffffffffffffffffffffffffffffffffffffffff16815260200190815260200160002060020160019054906101000a900460ff169050919050565b6040518060a00160405280606081526020016000600b0b8152602001600073ffffffffffffffffffffffffffffffffffffffff1681526020016000151581526020016000151581525090565b828054600181600116156101000203166002900490600052602060002090601f016020900481019282601f10611dfe57805160ff1916838001178555611e2c565b82800160010185558215611e2c579182015b82811115611e2b578251825591602001919060010190611e10565b5b509050611e399190611e3d565b5090565b5b80821115611e56576000816000905550600101611e3e565b5090565b600081359050611e6981612cee565b92915050565b600081359050611e7e81612d05565b92915050565b600081519050611e9381612d05565b92915050565b60008083601f840112611eab57600080fd5b8235905067ffffffffffffffff811115611ec457600080fd5b602083019150836001820283011115611edc57600080fd5b9250929050565b600082601f830112611ef457600080fd5b8151611f07611f0282612b3b565b612b0e565b91508082526020830160208301858383011115611f2357600080fd5b611f2e838284612caa565b50505092915050565b600081359050611f4681612d1c565b92915050565b600081359050611f5b81612d33565b92915050565b600081519050611f7081612d33565b92915050565b60008083601f840112611f8857600080fd5b8235905067ffffffffffffffff811115611fa157600080fd5b602083019150836001820283011115611fb957600080fd5b9250929050565b600060208284031215611fd257600080fd5b6000611fe084828501611e5a565b91505092915050565b600060208284031215611ffb57600080fd5b600061200984828501611e84565b91505092915050565b60006020828403121561202457600080fd5b600082015167ffffffffffffffff81111561203e57600080fd5b61204a84828501611ee3565b91505092915050565b600080600080600080600060a0888a03121561206e57600080fd5b600061207c8a828b01611f37565b975050602061208d8a828b01611e5a565b965050604061209e8a828b01611e6f565b955050606088013567ffffffffffffffff8111156120bb57600080fd5b6120c78a828b01611e99565b9450945050608088013567ffffffffffffffff8111156120e657600080fd5b6120f28a828b01611e99565b925092505092959891949750929550565b600080600080600080600080600060c08a8c03121561212157600080fd5b600061212f8c828d01611f37565b99505060206121408c828d01611e5a565b98505060406121518c828d01611e6f565b97505060608a013567ffffffffffffffff81111561216e57600080fd5b61217a8c828d01611e99565b965096505060808a013567ffffffffffffffff81111561219957600080fd5b6121a58c828d01611e99565b945094505060a08a013567ffffffffffffffff8111156121c457600080fd5b6121d08c828d01611e99565b92509250509295985092959850929598565b6000602082840312156121f457600080fd5b600061220284828501611f61565b91505092915050565b6000806000806060858703121561222157600080fd5b600085013567ffffffffffffffff81111561223b57600080fd5b61224787828801611f76565b9450945050602061225a87828801611e5a565b925050604061226b87828801611f4c565b91505092959194509250565b6000612283838361278e565b905092915050565b61229481612bfb565b82525050565b6122a381612bfb565b82525050565b6122b281612be9565b82525050565b60006122c382612b77565b6122cd8185612ba5565b9350836020820285016122df85612b67565b8060005b8581101561231b57848403895281516122fc8582612277565b945061230783612b98565b925060208a019950506001810190506122e3565b50829750879550505050505092915050565b61233681612c0d565b82525050565b600061234782612b82565b6123518185612bb6565b9350612361818560208601612caa565b61236a81612cdd565b840191505092915050565b61237e81612c62565b82525050565b61238d81612c86565b82525050565b61239c81612c35565b82525050565b6123ab81612c35565b82525050565b60006123bc82612b8d565b6123c68185612bc7565b93506123d6818560208601612caa565b6123df81612cdd565b840191505092915050565b60006123f7603783612bd8565b91507f556e61626c6520746f207374617274207472616e73616374696f6e206265636160008301527f75736520796f75277265206e6f7420656d706c6f7965640000000000000000006020830152604082019050919050565b600061245d603383612bd8565b91507f556e737570706f727465642063616c6c6261636b202d20204265666f7265204160008301527f677265656d656e74205465726d696e61746564000000000000000000000000006020830152604082019050919050565b60006124c3600283612bb6565b91507f30780000000000000000000000000000000000000000000000000000000000006000830152602082019050919050565b6000612503602083612bd8565b91507f43616e6e6f742068617665206e656761746976652073616c61727920726174656000830152602082019050919050565b6000612543601283612bd8565b91507f4e6f7420616363657074656420746f6b656e00000000000000000000000000006000830152602082019050919050565b6000612583601583612bd8565b91507f537570706f7274206f6e6c79206f6e6520686f737400000000000000000000006000830152602082019050919050565b60006125c3602583612bd8565b91507f596f7520617265206e6f7420746865206f776e6572206f66207468697320636f60008301527f6d70616e790000000000000000000000000000000000000000000000000000006020830152604082019050919050565b6000612629602583612bd8565b91507f4e6f7420656e6f7567682066756e64732073747265616d656420627920656d7060008301527f6c6f7965720000000000000000000000000000000000000000000000000000006020830152604082019050919050565b600061268f601483612bd8565b91507f4f6e6c7920434641763120737570706f727465640000000000000000000000006000830152602082019050919050565b60006126cf602f83612bd8565b91507f556e737570706f727465642063616c6c6261636b202d204265666f726520416760008301527f7265656d656e74207570646174656400000000000000000000000000000000006020830152604082019050919050565b6000612735602f83612bd8565b91507f556e737570706f727465642063616c6c6261636b202d204265666f726520416760008301527f7265656d656e74204372656174656400000000000000000000000000000000006020830152604082019050919050565b600060a08301600083015184820360008601526127ab82826123b1565b91505060208301516127c06020860182612393565b5060408301516127d3604086018261228b565b5060608301516127e6606086018261232d565b5060808301516127f9608086018261232d565b508091505092915050565b600060208201905061281960008301846122a9565b92915050565b6000602082019050818103600083015261283981846122b8565b905092915050565b6000602082019050818103600083015261285b818461233c565b905092915050565b60006060820190506128786000830185612375565b818103602083015261288a818461233c565b9050818103604083015261289d816124b6565b90509392505050565b60006040820190506128bb6000830185612384565b6128c860208301846122a9565b9392505050565b60006080820190506128e46000830187612384565b6128f1602083018661229a565b6128fe60408301856123a2565b8181036060830152612910818461233c565b905095945050505050565b60006080820190506129306000830187612384565b61293d60208301866122a9565b61294a604083018561229a565b818103606083015261295c818461233c565b905095945050505050565b600060808201905061297c6000830187612384565b61298960208301866122a9565b61299660408301856123a2565b81810360608301526129a8818461233c565b905095945050505050565b60006020820190506129c860008301846123a2565b92915050565b600060208201905081810360008301526129e7816123ea565b9050919050565b60006020820190508181036000830152612a0781612450565b9050919050565b60006020820190508181036000830152612a27816124f6565b9050919050565b60006020820190508181036000830152612a4781612536565b9050919050565b60006020820190508181036000830152612a6781612576565b9050919050565b60006020820190508181036000830152612a87816125b6565b9050919050565b60006020820190508181036000830152612aa78161261c565b9050919050565b60006020820190508181036000830152612ac781612682565b9050919050565b60006020820190508181036000830152612ae7816126c2565b9050919050565b60006020820190508181036000830152612b0781612728565b9050919050565b6000604051905081810181811067ffffffffffffffff82111715612b3157600080fd5b8060405250919050565b600067ffffffffffffffff821115612b5257600080fd5b601f19601f8301169050602081019050919050565b6000819050602082019050919050565b600081519050919050565b600081519050919050565b600081519050919050565b6000602082019050919050565b600082825260208201905092915050565b600082825260208201905092915050565b600082825260208201905092915050565b600082825260208201905092915050565b6000612bf482612c42565b9050919050565b6000612c0682612c42565b9050919050565b60008115159050919050565b6000819050919050565b6000612c2e82612be9565b9050919050565b600081600b0b9050919050565b600073ffffffffffffffffffffffffffffffffffffffff82169050919050565b6000612c6d82612c74565b9050919050565b6000612c7f82612c42565b9050919050565b6000612c9182612c98565b9050919050565b6000612ca382612c42565b9050919050565b60005b83811015612cc8578082015181840152602081019050612cad565b83811115612cd7576000848401525b50505050565b6000601f19601f8301169050919050565b612cf781612be9565b8114612d0257600080fd5b50565b612d0e81612c19565b8114612d1957600080fd5b50565b612d2581612c23565b8114612d3057600080fd5b50565b612d3c81612c35565b8114612d4757600080fd5b5056fea26469706673582212200a4f598bc5118405aa8bd00b2d1c6911611a540a9edf68f434314772bc87aa3764736f6c63430007000033",
	"immutableReferences": {},
	"source": "// SPDX-License-Identifier: MIT\npragma solidity ^0.7.0;\npragma experimental ABIEncoderV2;\n\nimport {ISuperfluid, ISuperToken, ISuperApp, ISuperAgreement, SuperAppDefinitions} from \"@superfluid-finance/ethereum-contracts/contracts/interfaces/superfluid/ISuperfluid.sol\";\n\nimport {IConstantFlowAgreementV1} from \"@superfluid-finance/ethereum-contracts/contracts/interfaces/agreements/IConstantFlowAgreementV1.sol\";\n\nimport {SuperAppBase} from \"@superfluid-finance/ethereum-contracts/contracts/apps/SuperAppBase.sol\";\n\ncontract CompanyContract is SuperAppBase {\n    struct Employee {\n        string name;\n        int96 salaryFlowRate;\n        address payable empAddress;\n        bool isEmployed;\n        bool isWorking;\n    }\n\n    mapping(address => Employee) private employees;\n    address[] private employeeAddresses;\n\n    int96 private activeInFlowRate;\n    int96 private activeOutFlowRate;\n\n    address payable _owner;\n    ISuperfluid private _host; // host\n    IConstantFlowAgreementV1 private _cfa; // the stored constant flow agreement class address\n    ISuperToken private _acceptedToken; // accepted token\n\n    constructor(\n        ISuperfluid host,\n        IConstantFlowAgreementV1 cfa,\n        ISuperToken acceptedToken,\n        address owner\n    ) {\n        assert(address(host) != address(0));\n        assert(address(cfa) != address(0));\n        assert(address(acceptedToken) != address(0));\n\n        _owner = payable(owner);\n\n        _host = host;\n        _cfa = cfa;\n        _acceptedToken = acceptedToken;\n\n        uint256 configWord = SuperAppDefinitions.APP_LEVEL_FINAL |\n            SuperAppDefinitions.BEFORE_AGREEMENT_CREATED_NOOP |\n            SuperAppDefinitions.BEFORE_AGREEMENT_UPDATED_NOOP |\n            SuperAppDefinitions.BEFORE_AGREEMENT_TERMINATED_NOOP;\n\n        _host.registerApp(configWord);\n    }\n\n    function startWorking() external isEmployed isNotWorking {\n        require(\n            activeInFlowRate >=\n                (activeOutFlowRate + employees[msg.sender].salaryFlowRate),\n            \"Not enough funds streamed by employer\"\n        );\n        employees[msg.sender].isWorking = true;\n        _host.callAgreement(\n            _cfa,\n            abi.encodeWithSelector(\n                _cfa.createFlow.selector,\n                _acceptedToken,\n                msg.sender,\n                employees[msg.sender].salaryFlowRate,\n                new bytes(0)\n            ),\n            \"0x\"\n        );\n        activeOutFlowRate += employees[msg.sender].salaryFlowRate;\n    }\n\n    function stopWorking() external isEmployed isWorking {\n        employees[msg.sender].isWorking = false;\n        _host.callAgreement(\n            _cfa,\n            abi.encodeWithSelector(\n                _cfa.deleteFlow.selector,\n                _acceptedToken,\n                address(this),\n                msg.sender,\n                new bytes(0)\n            ),\n            \"0x\"\n        );\n        activeOutFlowRate -= employees[msg.sender].salaryFlowRate;\n    }\n\n    function upsertEmployee(\n        string calldata name,\n        address empAddress,\n        int96 salaryFlowRate\n    ) external isOwner {\n        require(salaryFlowRate >= 0, \"Cannot have negative salary rate\");\n        bool isAlreadyEmployed = employees[empAddress].isEmployed;\n        bool isEmployeeWorking = employees[empAddress].isWorking;\n        int96 previousSalaryFlowRate = employees[empAddress].salaryFlowRate;\n        if (isEmployeeWorking && previousSalaryFlowRate != salaryFlowRate) {\n            _host.callAgreement(\n                _cfa,\n                abi.encodeWithSelector(\n                    _cfa.updateFlow.selector,\n                    _acceptedToken,\n                    empAddress,\n                    salaryFlowRate,\n                    new bytes(0)\n                ),\n                \"0x\"\n            );\n            activeOutFlowRate += salaryFlowRate - previousSalaryFlowRate;\n        }\n\n        if (!isAlreadyEmployed) {\n            employeeAddresses.push(empAddress);\n        }\n\n        employees[empAddress] = Employee({\n            name: name,\n            empAddress: payable(empAddress),\n            salaryFlowRate: salaryFlowRate,\n            isEmployed: true,\n            isWorking: isEmployeeWorking\n        });\n    }\n\n    function removeEmployee(address empAddress) external isOwner {\n        employees[empAddress].isEmployed = false;\n    }\n\n    function getEmployees() external view isOwner returns (Employee[] memory) {\n        Employee[] memory companyEmployees = new Employee[](\n            employeeAddresses.length\n        );\n        for (uint256 i = 0; i < employeeAddresses.length; i++) {\n            companyEmployees[i] = employees[employeeAddresses[i]];\n        }\n        return companyEmployees;\n    }\n\n    function getActiveInFlowRate() external view isOwner returns (int96) {\n        return activeInFlowRate;\n    }\n\n    function getActiveOutFlowRate() external view isOwner returns (int96) {\n        return activeOutFlowRate;\n    }\n\n    function getOwner() external view isOwner returns (address) {\n        return _owner;\n    }\n\n    /**************************************************************************\n     * SuperApp callbacks\n     *************************************************************************/\n\n    function afterAgreementCreated(\n        ISuperToken _superToken,\n        address _agreementClass,\n        bytes32, // _agreementId,\n        bytes calldata, /*_agreementData*/\n        bytes calldata, // _cbdata,\n        bytes calldata _ctx\n    )\n        external\n        override\n        onlyExpected(_superToken, _agreementClass)\n        onlyHost\n        returns (bytes memory newCtx)\n    {\n        activeInFlowRate = _cfa.getNetFlow(_acceptedToken, address(this));\n        return _ctx;\n    }\n\n    function afterAgreementUpdated(\n        ISuperToken _superToken,\n        address _agreementClass,\n        bytes32, //_agreementId,\n        bytes calldata, /*_agreementData*/\n        bytes calldata, //_cbdata,\n        bytes calldata _ctx\n    )\n        external\n        override\n        onlyExpected(_superToken, _agreementClass)\n        onlyHost\n        returns (bytes memory newCtx)\n    {\n        // TODO: handle case where updated in flow is smaller than outflow\n        activeInFlowRate = _cfa.getNetFlow(_acceptedToken, address(this));\n        return _ctx;\n    }\n\n    function afterAgreementTerminated(\n        ISuperToken, //_superToken,\n        address, // _agreementClass,\n        bytes32, //_agreementId,\n        bytes calldata, /*_agreementData*/\n        bytes calldata, //_cbdata,\n        bytes calldata _ctx\n    ) external override onlyHost returns (bytes memory newCtx) {\n        activeInFlowRate = 0;\n        return _ctx;\n    }\n\n    function _isEmployed(address addr) private view returns (bool) {\n        return employees[addr].isEmployed;\n    }\n\n    function _isOwner(address addr) private view returns (bool) {\n        return _owner == addr;\n    }\n\n    function _isWorking(address addr) private view returns (bool) {\n        return employees[addr].isWorking;\n    }\n\n    function _isSameToken(ISuperToken superToken) private view returns (bool) {\n        return address(superToken) == address(_acceptedToken);\n    }\n\n    function _isCFAv1(address agreementClass) private view returns (bool) {\n        return\n            ISuperAgreement(agreementClass).agreementType() ==\n            keccak256(\n                \"org.superfluid-finance.agreements.ConstantFlowAgreement.v1\"\n            );\n    }\n\n    modifier onlyHost() {\n        require(msg.sender == address(_host), \"Support only one host\");\n        _;\n    }\n\n    modifier isEmployed() {\n        require(\n            _isEmployed(msg.sender),\n            \"Unable to start transaction because you're not employed\"\n        );\n        _;\n    }\n\n    modifier isWorking() {\n        require(\n            _isWorking(msg.sender),\n            \"Unable to start transaction because you're not employed\"\n        );\n        _;\n    }\n\n    modifier isNotWorking() {\n        require(\n            !_isWorking(msg.sender),\n            \"Unable to start transaction because you're not employed\"\n        );\n        _;\n    }\n\n    modifier isOwner() {\n        require(_isOwner(msg.sender), \"You are not the owner of this company\");\n        _;\n    }\n\n    modifier onlyExpected(ISuperToken superToken, address agreementClass) {\n        require(_isSameToken(superToken), \"Not accepted token\");\n        require(_isCFAv1(agreementClass), \"Only CFAv1 supported\");\n        _;\n    }\n}\n",
	"sourcePath": "/home/marten/WORKSPACE/WorkCD/superApp/contracts/CompanyContract.sol",
	"compiler": {
		"name": "solc",
		"version": "0.7.0+commit.9e61f92b.Emscripten.clang"
	},
	"schemaVersion": "3.4.3",
	"updatedAt": "2021-10-08T10:47:24.010Z",
	"devdoc": {
		"kind": "dev",
		"methods": {},
		"version": 1
	},
	"userdoc": {
		"kind": "user",
		"methods": {},
		"version": 1
	}
}