{
    "contractName": "WorkCD",
    "abi": [
        {
            "inputs": [
                {
                    "internalType": "contract ISuperfluid",
                    "name": "host",
                    "type": "address"
                },
                {
                    "internalType": "contract IConstantFlowAgreementV1",
                    "name": "cfa",
                    "type": "address"
                },
                {
                    "internalType": "contract ISuperToken",
                    "name": "acceptedToken",
                    "type": "address"
                },
                {
                    "internalType": "address",
                    "name": "owner",
                    "type": "address"
                }
            ],
            "stateMutability": "nonpayable",
            "type": "constructor"
        },
        {
            "inputs": [
                {
                    "internalType": "uint256",
                    "name": "",
                    "type": "uint256"
                }
            ],
            "name": "companies",
            "outputs": [
                {
                    "internalType": "string",
                    "name": "name",
                    "type": "string"
                },
                {
                    "internalType": "contract CompanyContract",
                    "name": "compContract",
                    "type": "address"
                },
                {
                    "internalType": "bool",
                    "name": "exists",
                    "type": "bool"
                },
                {
                    "internalType": "uint256",
                    "name": "id",
                    "type": "uint256"
                },
                {
                    "internalType": "address",
                    "name": "owner",
                    "type": "address"
                }
            ],
            "stateMutability": "view",
            "type": "function",
            "constant": true
        },
        {
            "inputs": [],
            "name": "getCompanies",
            "outputs": [
                {
                    "components": [
                        {
                            "internalType": "string",
                            "name": "name",
                            "type": "string"
                        },
                        {
                            "internalType": "contract CompanyContract",
                            "name": "compContract",
                            "type": "address"
                        },
                        {
                            "internalType": "bool",
                            "name": "exists",
                            "type": "bool"
                        },
                        {
                            "internalType": "uint256",
                            "name": "id",
                            "type": "uint256"
                        },
                        {
                            "internalType": "address",
                            "name": "owner",
                            "type": "address"
                        }
                    ],
                    "internalType": "struct WorkCD.Company[]",
                    "name": "",
                    "type": "tuple[]"
                }
            ],
            "stateMutability": "view",
            "type": "function",
            "constant": true
        },
        {
            "inputs": [
                {
                    "internalType": "string",
                    "name": "_name",
                    "type": "string"
                }
            ],
            "name": "createCompany",
            "outputs": [],
            "stateMutability": "nonpayable",
            "type": "function"
        }
    ],
    "bytecode": "0x60806040523480156200001157600080fd5b50604051620042a5380380620042a5833981810160405281019062000037919062000248565b600073ffffffffffffffffffffffffffffffffffffffff168473ffffffffffffffffffffffffffffffffffffffff1614156200006f57fe5b600073ffffffffffffffffffffffffffffffffffffffff168373ffffffffffffffffffffffffffffffffffffffff161415620000a757fe5b600073ffffffffffffffffffffffffffffffffffffffff168273ffffffffffffffffffffffffffffffffffffffff161415620000df57fe5b806000806101000a81548173ffffffffffffffffffffffffffffffffffffffff021916908373ffffffffffffffffffffffffffffffffffffffff16021790555083600260006101000a81548173ffffffffffffffffffffffffffffffffffffffff021916908373ffffffffffffffffffffffffffffffffffffffff16021790555082600360006101000a81548173ffffffffffffffffffffffffffffffffffffffff021916908373ffffffffffffffffffffffffffffffffffffffff16021790555081600460006101000a81548173ffffffffffffffffffffffffffffffffffffffff021916908373ffffffffffffffffffffffffffffffffffffffff160217905550505050506200038c565b600081519050620001fd8162000324565b92915050565b60008151905062000214816200033e565b92915050565b6000815190506200022b8162000358565b92915050565b600081519050620002428162000372565b92915050565b600080600080608085870312156200025f57600080fd5b60006200026f8782880162000231565b9450506020620002828782880162000203565b935050604062000295878288016200021a565b9250506060620002a887828801620001ec565b91505092959194509250565b6000620002c18262000304565b9050919050565b6000620002d582620002b4565b9050919050565b6000620002e982620002b4565b9050919050565b6000620002fd82620002b4565b9050919050565b600073ffffffffffffffffffffffffffffffffffffffff82169050919050565b6200032f81620002b4565b81146200033b57600080fd5b50565b6200034981620002c8565b81146200035557600080fd5b50565b6200036381620002dc565b81146200036f57600080fd5b50565b6200037d81620002f0565b81146200038957600080fd5b50565b613f09806200039c6000396000f3fe60806040523480156200001157600080fd5b5060043610620000465760003560e01c80630c0b6691146200004b5780632813d19d146200006d578063fd7f611e14620000a7575b600080fd5b62000055620000c7565b60405162000064919062000a0f565b60405180910390f35b6200008b60048036038101906200008591906200077e565b6200029f565b6040516200009e95949392919062000a80565b60405180910390f35b620000c56004803603810190620000bf919062000735565b620003cc565b005b60606001805480602002602001604051908101604052809291908181526020016000905b828210156200029657838290600052602060002090600402016040518060a0016040529081600082018054600181600116156101000203166002900480601f016020809104026020016040519081016040528092919081815260200182805460018160011615610100020316600290048015620001ac5780601f106200018057610100808354040283529160200191620001ac565b820191906000526020600020905b8154815290600101906020018083116200018e57829003601f168201915b505050505081526020016001820160009054906101000a900473ffffffffffffffffffffffffffffffffffffffff1673ffffffffffffffffffffffffffffffffffffffff1673ffffffffffffffffffffffffffffffffffffffff1681526020016001820160149054906101000a900460ff16151515158152602001600282015481526020016003820160009054906101000a900473ffffffffffffffffffffffffffffffffffffffff1673ffffffffffffffffffffffffffffffffffffffff1673ffffffffffffffffffffffffffffffffffffffff168152505081526020019060010190620000eb565b50505050905090565b60018181548110620002ad57fe5b9060005260206000209060040201600091509050806000018054600181600116156101000203166002900480601f0160208091040260200160405190810160405280929190818152602001828054600181600116156101000203166002900480156200035d5780601f1062000331576101008083540402835291602001916200035d565b820191906000526020600020905b8154815290600101906020018083116200033f57829003601f168201915b5050505050908060010160009054906101000a900473ffffffffffffffffffffffffffffffffffffffff16908060010160149054906101000a900460ff16908060020154908060030160009054906101000a900473ffffffffffffffffffffffffffffffffffffffff16905085565b6000600260009054906101000a900473ffffffffffffffffffffffffffffffffffffffff16600360009054906101000a900473ffffffffffffffffffffffffffffffffffffffff16600460009054906101000a900473ffffffffffffffffffffffffffffffffffffffff163360405162000446906200061d565b62000455949392919062000a33565b604051809103906000f08015801562000472573d6000803e3d6000fd5b50905060016040518060a0016040528085858080601f016020809104026020016040519081016040528093929190818152602001838380828437600081840152601f19601f8201169050808301925050505050505081526020018373ffffffffffffffffffffffffffffffffffffffff16815260200160011515815260200160018054905081526020013373ffffffffffffffffffffffffffffffffffffffff16815250908060018154018082558091505060019003906000526020600020906004020160009091909190915060008201518160000190805190602001906200055d9291906200062b565b5060208201518160010160006101000a81548173ffffffffffffffffffffffffffffffffffffffff021916908373ffffffffffffffffffffffffffffffffffffffff16021790555060408201518160010160146101000a81548160ff0219169083151502179055506060820151816002015560808201518160030160006101000a81548173ffffffffffffffffffffffffffffffffffffffff021916908373ffffffffffffffffffffffffffffffffffffffff1602179055505050505050565b6132028062000cd283390190565b828054600181600116156101000203166002900490600052602060002090601f016020900481019282601f106200066e57805160ff19168380011785556200069f565b828001600101855582156200069f579182015b828111156200069e57825182559160200191906001019062000681565b5b509050620006ae9190620006b2565b5090565b5b80821115620006cd576000816000905550600101620006b3565b5090565b60008083601f840112620006e457600080fd5b8235905067ffffffffffffffff811115620006fe57600080fd5b6020830191508360018202830111156200071757600080fd5b9250929050565b6000813590506200072f8162000cb7565b92915050565b600080602083850312156200074957600080fd5b600083013567ffffffffffffffff8111156200076457600080fd5b6200077285828601620006d1565b92509250509250929050565b6000602082840312156200079157600080fd5b6000620007a1848285016200071e565b91505092915050565b6000620007b883836200096d565b905092915050565b620007cb8162000b94565b82525050565b620007dc8162000b4a565b82525050565b620007ed8162000b4a565b82525050565b6000620008008262000af4565b6200080c818562000b17565b935083602082028501620008208562000ae4565b8060005b85811015620008625784840389528151620008408582620007aa565b94506200084d8362000b0a565b925060208a0199505060018101905062000824565b50829750879550505050505092915050565b6200087f8162000b5e565b82525050565b620008908162000b5e565b82525050565b620008a18162000ba8565b82525050565b620008b28162000ba8565b82525050565b620008c38162000bd0565b82525050565b620008d48162000bf8565b82525050565b620008e58162000c20565b82525050565b6000620008f88262000aff565b62000904818562000b28565b93506200091681856020860162000c70565b620009218162000ca6565b840191505092915050565b6000620009398262000aff565b62000945818562000b39565b93506200095781856020860162000c70565b620009628162000ca6565b840191505092915050565b600060a08301600083015184820360008601526200098c8282620008eb565b9150506020830151620009a3602086018262000896565b506040830151620009b8604086018262000874565b506060830151620009cd6060860182620009ed565b506080830151620009e26080860182620007d1565b508091505092915050565b620009f88162000b8a565b82525050565b62000a098162000b8a565b82525050565b6000602082019050818103600083015262000a2b8184620007f3565b905092915050565b600060808201905062000a4a6000830187620008da565b62000a596020830186620008b8565b62000a686040830185620008c9565b62000a776060830184620007c0565b95945050505050565b600060a082019050818103600083015262000a9c81886200092c565b905062000aad6020830187620008a7565b62000abc604083018662000885565b62000acb6060830185620009fe565b62000ada6080830184620007e2565b9695505050505050565b6000819050602082019050919050565b600081519050919050565b600081519050919050565b6000602082019050919050565b600082825260208201905092915050565b600082825260208201905092915050565b600082825260208201905092915050565b600062000b578262000b6a565b9050919050565b60008115159050919050565b600073ffffffffffffffffffffffffffffffffffffffff82169050919050565b6000819050919050565b600062000ba18262000c48565b9050919050565b600062000bb58262000bbc565b9050919050565b600062000bc98262000b6a565b9050919050565b600062000bdd8262000be4565b9050919050565b600062000bf18262000b6a565b9050919050565b600062000c058262000c0c565b9050919050565b600062000c198262000b6a565b9050919050565b600062000c2d8262000c34565b9050919050565b600062000c418262000b6a565b9050919050565b600062000c558262000c5c565b9050919050565b600062000c698262000b6a565b9050919050565b60005b8381101562000c9057808201518184015260208101905062000c73565b8381111562000ca0576000848401525b50505050565b6000601f19601f8301169050919050565b62000cc28162000b8a565b811462000cce57600080fd5b5056fe60806040523480156200001157600080fd5b5060405162003202380380620032028339818101604052810190620000379190620002f6565b600073ffffffffffffffffffffffffffffffffffffffff168473ffffffffffffffffffffffffffffffffffffffff1614156200006f57fe5b600073ffffffffffffffffffffffffffffffffffffffff168373ffffffffffffffffffffffffffffffffffffffff161415620000a757fe5b600073ffffffffffffffffffffffffffffffffffffffff168273ffffffffffffffffffffffffffffffffffffffff161415620000df57fe5b80600360006101000a81548173ffffffffffffffffffffffffffffffffffffffff021916908373ffffffffffffffffffffffffffffffffffffffff16021790555083600460006101000a81548173ffffffffffffffffffffffffffffffffffffffff021916908373ffffffffffffffffffffffffffffffffffffffff16021790555082600560006101000a81548173ffffffffffffffffffffffffffffffffffffffff021916908373ffffffffffffffffffffffffffffffffffffffff16021790555081600660006101000a81548173ffffffffffffffffffffffffffffffffffffffff021916908373ffffffffffffffffffffffffffffffffffffffff160217905550600064100000000064040000000064010000000060011717179050600460009054906101000a900473ffffffffffffffffffffffffffffffffffffffff1673ffffffffffffffffffffffffffffffffffffffff1663ad3915c8826040518263ffffffff1660e01b81526004016200025b919062000373565b600060405180830381600087803b1580156200027657600080fd5b505af11580156200028b573d6000803e3d6000fd5b50505050505050505062000472565b600081519050620002ab816200040a565b92915050565b600081519050620002c28162000424565b92915050565b600081519050620002d9816200043e565b92915050565b600081519050620002f08162000458565b92915050565b600080600080608085870312156200030d57600080fd5b60006200031d87828801620002df565b94505060206200033087828801620002b1565b93505060406200034387828801620002c8565b925050606062000356878288016200029a565b91505092959194509250565b6200036d8162000400565b82525050565b60006020820190506200038a600083018462000362565b92915050565b60006200039d82620003e0565b9050919050565b6000620003b18262000390565b9050919050565b6000620003c58262000390565b9050919050565b6000620003d98262000390565b9050919050565b600073ffffffffffffffffffffffffffffffffffffffff82169050919050565b6000819050919050565b620004158162000390565b81146200042157600080fd5b50565b6200042f81620003a4565b81146200043b57600080fd5b50565b6200044981620003b8565b81146200045557600080fd5b50565b6200046381620003cc565b81146200046f57600080fd5b50565b612d8080620004826000396000f3fe608060405234801561001057600080fd5b50600436106100ea5760003560e01c8063884d1f401161008c57806399495947116100665780639949594714610273578063aaa2badf1461027d578063d108177a14610287578063d86ed3e5146102a3576100ea565b8063884d1f4014610207578063893d20e814610237578063934751f614610255576100ea565b80634abefa36116100c85780634abefa361461016d57806353c11f991461018b5780635e81370d146101bb5780635f9e7d77146101d7576100ea565b8063127af7b6146100ef578063230dbd291461010d57806330d9c9151461013d575b600080fd5b6100f76102d3565b60405161010491906129b3565b60405180910390f35b61012760048036038101906101229190612103565b610332565b6040516101349190612841565b60405180910390f35b61015760048036038101906101529190612053565b6105ae565b6040516101649190612841565b60405180910390f35b6101756105eb565b604051610182919061281f565b60405180910390f35b6101a560048036038101906101a09190612103565b610897565b6040516101b29190612841565b60405180910390f35b6101d560048036038101906101d0919061220b565b6109b2565b005b6101f160048036038101906101ec9190612053565b610f74565b6040516101fe9190612841565b60405180910390f35b610221600480360381019061021c9190612053565b610fb1565b60405161022e9190612841565b60405180910390f35b61023f610fee565b60405161024c9190612804565b60405180910390f35b61025d611060565b60405161026a91906129b3565b60405180910390f35b61027b6110bf565b005b6102856113fe565b005b6102a1600480360381019061029c9190611fc0565b611843565b005b6102bd60048036038101906102b89190612103565b6118e8565b6040516102ca9190612841565b60405180910390f35b60006102de33611b64565b61031d576040517f08c379a000000000000000000000000000000000000000000000000000000000815260040161031490612a6e565b60405180910390fd5b600260009054906101000a9004600b0b905090565b6060898961033f82611bbe565b61037e576040517f08c379a000000000000000000000000000000000000000000000000000000000815260040161037590612a2e565b60405180910390fd5b61038781611c18565b6103c6576040517f08c379a00000000000000000000000000000000000000000000000000000000081526004016103bd90612aae565b60405180910390fd5b600460009054906101000a900473ffffffffffffffffffffffffffffffffffffffff1673ffffffffffffffffffffffffffffffffffffffff163373ffffffffffffffffffffffffffffffffffffffff1614610456576040517f08c379a000000000000000000000000000000000000000000000000000000000815260040161044d90612a4e565b60405180910390fd5b600560009054906101000a900473ffffffffffffffffffffffffffffffffffffffff1673ffffffffffffffffffffffffffffffffffffffff1663e8e7e2d1600660009054906101000a900473ffffffffffffffffffffffffffffffffffffffff16306040518363ffffffff1660e01b81526004016104d59291906128a6565b60206040518083038186803b1580156104ed57600080fd5b505afa158015610501573d6000803e3d6000fd5b505050506040513d601f19601f8201168201806040525081019061052591906121e2565b600260006101000a8154816bffffffffffffffffffffffff0219169083600b0b6bffffffffffffffffffffffff16021790555084848080601f016020809104026020016040519081016040528093929190818152602001838380828437600081840152601f19601f82011690508083019250505050505050925050509998505050505050505050565b60606040517f08c379a00000000000000000000000000000000000000000000000000000000081526004016105e290612aee565b60405180910390fd5b60606105f633611b64565b610635576040517f08c379a000000000000000000000000000000000000000000000000000000000815260040161062c90612a6e565b60405180910390fd5b606060018054905067ffffffffffffffff8111801561065357600080fd5b5060405190808252806020026020018201604052801561068d57816020015b61067a611d71565b8152602001906001900390816106725790505b50905060005b60018054905081101561088f57600080600183815481106106b057fe5b9060005260206000200160009054906101000a900473ffffffffffffffffffffffffffffffffffffffff1673ffffffffffffffffffffffffffffffffffffffff1673ffffffffffffffffffffffffffffffffffffffff1681526020019081526020016000206040518060a0016040529081600082018054600181600116156101000203166002900480601f0160208091040260200160405190810160405280929190818152602001828054600181600116156101000203166002900480156107b95780601f1061078e576101008083540402835291602001916107b9565b820191906000526020600020905b81548152906001019060200180831161079c57829003601f168201915b505050505081526020016001820160009054906101000a9004600b0b600b0b600b0b815260200160018201600c9054906101000a900473ffffffffffffffffffffffffffffffffffffffff1673ffffffffffffffffffffffffffffffffffffffff1673ffffffffffffffffffffffffffffffffffffffff1681526020016002820160009054906101000a900460ff161515151581526020016002820160019054906101000a900460ff16151515158152505082828151811061087757fe5b60200260200101819052508080600101915050610693565b508091505090565b6060600460009054906101000a900473ffffffffffffffffffffffffffffffffffffffff1673ffffffffffffffffffffffffffffffffffffffff163373ffffffffffffffffffffffffffffffffffffffff1614610929576040517f08c379a000000000000000000000000000000000000000000000000000000000815260040161092090612a4e565b60405180910390fd5b6000600260006101000a8154816bffffffffffffffffffffffff0219169083600b0b6bffffffffffffffffffffffff16021790555082828080601f016020809104026020016040519081016040528093929190818152602001838380828437600081840152601f19601f8201169050808301925050505050505090509998505050505050505050565b6109bb33611b64565b6109fa576040517f08c379a00000000000000000000000000000000000000000000000000000000081526004016109f190612a6e565b60405180910390fd5b600081600b0b1215610a41576040517f08c379a0000000000000000000000000000000000000000000000000000000008152600401610a3890612a0e565b60405180910390fd5b60008060008473ffffffffffffffffffffffffffffffffffffffff1673ffffffffffffffffffffffffffffffffffffffff16815260200190815260200160002060020160009054906101000a900460ff16905060008060008573ffffffffffffffffffffffffffffffffffffffff1673ffffffffffffffffffffffffffffffffffffffff16815260200190815260200160002060020160019054906101000a900460ff16905060008060008673ffffffffffffffffffffffffffffffffffffffff1673ffffffffffffffffffffffffffffffffffffffff16815260200190815260200160002060010160009054906101000a9004600b0b9050818015610b4d575083600b0b81600b0b14155b15610d5a57600460009054906101000a900473ffffffffffffffffffffffffffffffffffffffff1673ffffffffffffffffffffffffffffffffffffffff166339255d5b600560009054906101000a900473ffffffffffffffffffffffffffffffffffffffff166350209a6260e01b600660009054906101000a900473ffffffffffffffffffffffffffffffffffffffff168989600067ffffffffffffffff81118015610bf857600080fd5b506040519080825280601f01601f191660200182016040528015610c2b5781602001600182028036833780820191505090505b50604051602401610c3f9493929190612967565b604051602081830303815290604052907bffffffffffffffffffffffffffffffffffffffffffffffffffffffff19166020820180517bffffffffffffffffffffffffffffffffffffffffffffffffffffffff83818316178352505050506040518363ffffffff1660e01b8152600401610cb9929190612863565b600060405180830381600087803b158015610cd357600080fd5b505af1158015610ce7573d6000803e3d6000fd5b505050506040513d6000823e3d601f19601f82011682018060405250810190610d109190612012565b508084036002600c8282829054906101000a9004600b0b0192506101000a8154816bffffffffffffffffffffffff0219169083600b0b6bffffffffffffffffffffffff1602179055505b82610dc3576001859080600181540180825580915050600190039060005260206000200160009091909190916101000a81548173ffffffffffffffffffffffffffffffffffffffff021916908373ffffffffffffffffffffffffffffffffffffffff1602179055505b6040518060a0016040528088888080601f016020809104026020016040519081016040528093929190818152602001838380828437600081840152601f19601f82011690508083019250505050505050815260200185600b0b81526020018673ffffffffffffffffffffffffffffffffffffffff1681526020016001151581526020018315158152506000808773ffffffffffffffffffffffffffffffffffffffff1673ffffffffffffffffffffffffffffffffffffffff1681526020019081526020016000206000820151816000019080519060200190610ea6929190611dbd565b5060208201518160010160006101000a8154816bffffffffffffffffffffffff0219169083600b0b6bffffffffffffffffffffffff160217905550604082015181600101600c6101000a81548173ffffffffffffffffffffffffffffffffffffffff021916908373ffffffffffffffffffffffffffffffffffffffff16021790555060608201518160020160006101000a81548160ff02191690831515021790555060808201518160020160016101000a81548160ff02191690831515021790555090505050505050505050565b60606040517f08c379a0000000000000000000000000000000000000000000000000000000008152600401610fa8906129ee565b60405180910390fd5b60606040517f08c379a0000000000000000000000000000000000000000000000000000000008152600401610fe590612ace565b60405180910390fd5b6000610ff933611b64565b611038576040517f08c379a000000000000000000000000000000000000000000000000000000000815260040161102f90612a6e565b60405180910390fd5b600360009054906101000a900473ffffffffffffffffffffffffffffffffffffffff16905090565b600061106b33611b64565b6110aa576040517f08c379a00000000000000000000000000000000000000000000000000000000081526004016110a190612a6e565b60405180910390fd5b6002600c9054906101000a9004600b0b905090565b6110c833611cc1565b611107576040517f08c379a00000000000000000000000000000000000000000000000000000000081526004016110fe906129ce565b60405180910390fd5b61111033611d19565b61114f576040517f08c379a0000000000000000000000000000000000000000000000000000000008152600401611146906129ce565b60405180910390fd5b60008060003373ffffffffffffffffffffffffffffffffffffffff1673ffffffffffffffffffffffffffffffffffffffff16815260200190815260200160002060020160016101000a81548160ff021916908315150217905550600460009054906101000a900473ffffffffffffffffffffffffffffffffffffffff1673ffffffffffffffffffffffffffffffffffffffff166339255d5b600560009054906101000a900473ffffffffffffffffffffffffffffffffffffffff1663b4b333c660e01b600660009054906101000a900473ffffffffffffffffffffffffffffffffffffffff163033600067ffffffffffffffff8111801561124f57600080fd5b506040519080825280601f01601f1916602001820160405280156112825781602001600182028036833780820191505090505b50604051602401611296949392919061291b565b604051602081830303815290604052907bffffffffffffffffffffffffffffffffffffffffffffffffffffffff19166020820180517bffffffffffffffffffffffffffffffffffffffffffffffffffffffff83818316178352505050506040518363ffffffff1660e01b8152600401611310929190612863565b600060405180830381600087803b15801561132a57600080fd5b505af115801561133e573d6000803e3d6000fd5b505050506040513d6000823e3d601f19601f820116820180604052508101906113679190612012565b506000803373ffffffffffffffffffffffffffffffffffffffff1673ffffffffffffffffffffffffffffffffffffffff16815260200190815260200160002060010160009054906101000a9004600b0b6002600c8282829054906101000a9004600b0b0392506101000a8154816bffffffffffffffffffffffff0219169083600b0b6bffffffffffffffffffffffff160217905550565b61140733611cc1565b611446576040517f08c379a000000000000000000000000000000000000000000000000000000000815260040161143d906129ce565b60405180910390fd5b61144f33611d19565b1561148f576040517f08c379a0000000000000000000000000000000000000000000000000000000008152600401611486906129ce565b60405180910390fd5b6000803373ffffffffffffffffffffffffffffffffffffffff1673ffffffffffffffffffffffffffffffffffffffff16815260200190815260200160002060010160009054906101000a9004600b0b6002600c9054906101000a9004600b0b01600b0b600260009054906101000a9004600b0b600b0b1215611546576040517f08c379a000000000000000000000000000000000000000000000000000000000815260040161153d90612a8e565b60405180910390fd5b60016000803373ffffffffffffffffffffffffffffffffffffffff1673ffffffffffffffffffffffffffffffffffffffff16815260200190815260200160002060020160016101000a81548160ff021916908315150217905550600460009054906101000a900473ffffffffffffffffffffffffffffffffffffffff1673ffffffffffffffffffffffffffffffffffffffff166339255d5b600560009054906101000a900473ffffffffffffffffffffffffffffffffffffffff166362fc305e60e01b600660009054906101000a900473ffffffffffffffffffffffffffffffffffffffff16336000803373ffffffffffffffffffffffffffffffffffffffff1673ffffffffffffffffffffffffffffffffffffffff16815260200190815260200160002060010160009054906101000a9004600b0b600067ffffffffffffffff8111801561169457600080fd5b506040519080825280601f01601f1916602001820160405280156116c75781602001600182028036833780820191505090505b506040516024016116db94939291906128cf565b604051602081830303815290604052907bffffffffffffffffffffffffffffffffffffffffffffffffffffffff19166020820180517bffffffffffffffffffffffffffffffffffffffffffffffffffffffff83818316178352505050506040518363ffffffff1660e01b8152600401611755929190612863565b600060405180830381600087803b15801561176f57600080fd5b505af1158015611783573d6000803e3d6000fd5b505050506040513d6000823e3d601f19601f820116820180604052508101906117ac9190612012565b506000803373ffffffffffffffffffffffffffffffffffffffff1673ffffffffffffffffffffffffffffffffffffffff16815260200190815260200160002060010160009054906101000a9004600b0b6002600c8282829054906101000a9004600b0b0192506101000a8154816bffffffffffffffffffffffff0219169083600b0b6bffffffffffffffffffffffff160217905550565b61184c33611b64565b61188b576040517f08c379a000000000000000000000000000000000000000000000000000000000815260040161188290612a6e565b60405180910390fd5b60008060008373ffffffffffffffffffffffffffffffffffffffff1673ffffffffffffffffffffffffffffffffffffffff16815260200190815260200160002060020160006101000a81548160ff02191690831515021790555050565b606089896118f582611bbe565b611934576040517f08c379a000000000000000000000000000000000000000000000000000000000815260040161192b90612a2e565b60405180910390fd5b61193d81611c18565b61197c576040517f08c379a000000000000000000000000000000000000000000000000000000000815260040161197390612aae565b60405180910390fd5b600460009054906101000a900473ffffffffffffffffffffffffffffffffffffffff1673ffffffffffffffffffffffffffffffffffffffff163373ffffffffffffffffffffffffffffffffffffffff1614611a0c576040517f08c379a0000000000000000000000000000000000000000000000000000000008152600401611a0390612a4e565b60405180910390fd5b600560009054906101000a900473ffffffffffffffffffffffffffffffffffffffff1673ffffffffffffffffffffffffffffffffffffffff1663e8e7e2d1600660009054906101000a900473ffffffffffffffffffffffffffffffffffffffff16306040518363ffffffff1660e01b8152600401611a8b9291906128a6565b60206040518083038186803b158015611aa357600080fd5b505afa158015611ab7573d6000803e3d6000fd5b505050506040513d601f19601f82011682018060405250810190611adb91906121e2565b600260006101000a8154816bffffffffffffffffffffffff0219169083600b0b6bffffffffffffffffffffffff16021790555084848080601f016020809104026020016040519081016040528093929190818152602001838380828437600081840152601f19601f82011690508083019250505050505050925050509998505050505050505050565b60008173ffffffffffffffffffffffffffffffffffffffff16600360009054906101000a900473ffffffffffffffffffffffffffffffffffffffff1673ffffffffffffffffffffffffffffffffffffffff16149050919050565b6000600660009054906101000a900473ffffffffffffffffffffffffffffffffffffffff1673ffffffffffffffffffffffffffffffffffffffff168273ffffffffffffffffffffffffffffffffffffffff16149050919050565b60007fa9214cc96615e0085d3bb077758db69497dc2dce3b2b1e97bc93c3d18d83efd38273ffffffffffffffffffffffffffffffffffffffff16637730599e6040518163ffffffff1660e01b815260040160206040518083038186803b158015611c8157600080fd5b505afa158015611c95573d6000803e3d6000fd5b505050506040513d601f19601f82011682018060405250810190611cb99190611fe9565b149050919050565b60008060008373ffffffffffffffffffffffffffffffffffffffff1673ffffffffffffffffffffffffffffffffffffffff16815260200190815260200160002060020160009054906101000a900460ff169050919050565b60008060008373ffffffffffffffffffffffffffffffffffffffff1673ffffffffffffffffffffffffffffffffffffffff16815260200190815260200160002060020160019054906101000a900460ff169050919050565b6040518060a00160405280606081526020016000600b0b8152602001600073ffffffffffffffffffffffffffffffffffffffff1681526020016000151581526020016000151581525090565b828054600181600116156101000203166002900490600052602060002090601f016020900481019282601f10611dfe57805160ff1916838001178555611e2c565b82800160010185558215611e2c579182015b82811115611e2b578251825591602001919060010190611e10565b5b509050611e399190611e3d565b5090565b5b80821115611e56576000816000905550600101611e3e565b5090565b600081359050611e6981612cee565b92915050565b600081359050611e7e81612d05565b92915050565b600081519050611e9381612d05565b92915050565b60008083601f840112611eab57600080fd5b8235905067ffffffffffffffff811115611ec457600080fd5b602083019150836001820283011115611edc57600080fd5b9250929050565b600082601f830112611ef457600080fd5b8151611f07611f0282612b3b565b612b0e565b91508082526020830160208301858383011115611f2357600080fd5b611f2e838284612caa565b50505092915050565b600081359050611f4681612d1c565b92915050565b600081359050611f5b81612d33565b92915050565b600081519050611f7081612d33565b92915050565b60008083601f840112611f8857600080fd5b8235905067ffffffffffffffff811115611fa157600080fd5b602083019150836001820283011115611fb957600080fd5b9250929050565b600060208284031215611fd257600080fd5b6000611fe084828501611e5a565b91505092915050565b600060208284031215611ffb57600080fd5b600061200984828501611e84565b91505092915050565b60006020828403121561202457600080fd5b600082015167ffffffffffffffff81111561203e57600080fd5b61204a84828501611ee3565b91505092915050565b600080600080600080600060a0888a03121561206e57600080fd5b600061207c8a828b01611f37565b975050602061208d8a828b01611e5a565b965050604061209e8a828b01611e6f565b955050606088013567ffffffffffffffff8111156120bb57600080fd5b6120c78a828b01611e99565b9450945050608088013567ffffffffffffffff8111156120e657600080fd5b6120f28a828b01611e99565b925092505092959891949750929550565b600080600080600080600080600060c08a8c03121561212157600080fd5b600061212f8c828d01611f37565b99505060206121408c828d01611e5a565b98505060406121518c828d01611e6f565b97505060608a013567ffffffffffffffff81111561216e57600080fd5b61217a8c828d01611e99565b965096505060808a013567ffffffffffffffff81111561219957600080fd5b6121a58c828d01611e99565b945094505060a08a013567ffffffffffffffff8111156121c457600080fd5b6121d08c828d01611e99565b92509250509295985092959850929598565b6000602082840312156121f457600080fd5b600061220284828501611f61565b91505092915050565b6000806000806060858703121561222157600080fd5b600085013567ffffffffffffffff81111561223b57600080fd5b61224787828801611f76565b9450945050602061225a87828801611e5a565b925050604061226b87828801611f4c565b91505092959194509250565b6000612283838361278e565b905092915050565b61229481612bfb565b82525050565b6122a381612bfb565b82525050565b6122b281612be9565b82525050565b60006122c382612b77565b6122cd8185612ba5565b9350836020820285016122df85612b67565b8060005b8581101561231b57848403895281516122fc8582612277565b945061230783612b98565b925060208a019950506001810190506122e3565b50829750879550505050505092915050565b61233681612c0d565b82525050565b600061234782612b82565b6123518185612bb6565b9350612361818560208601612caa565b61236a81612cdd565b840191505092915050565b61237e81612c62565b82525050565b61238d81612c86565b82525050565b61239c81612c35565b82525050565b6123ab81612c35565b82525050565b60006123bc82612b8d565b6123c68185612bc7565b93506123d6818560208601612caa565b6123df81612cdd565b840191505092915050565b60006123f7603783612bd8565b91507f556e61626c6520746f207374617274207472616e73616374696f6e206265636160008301527f75736520796f75277265206e6f7420656d706c6f7965640000000000000000006020830152604082019050919050565b600061245d603383612bd8565b91507f556e737570706f727465642063616c6c6261636b202d20204265666f7265204160008301527f677265656d656e74205465726d696e61746564000000000000000000000000006020830152604082019050919050565b60006124c3600283612bb6565b91507f30780000000000000000000000000000000000000000000000000000000000006000830152602082019050919050565b6000612503602083612bd8565b91507f43616e6e6f742068617665206e656761746976652073616c61727920726174656000830152602082019050919050565b6000612543601283612bd8565b91507f4e6f7420616363657074656420746f6b656e00000000000000000000000000006000830152602082019050919050565b6000612583601583612bd8565b91507f537570706f7274206f6e6c79206f6e6520686f737400000000000000000000006000830152602082019050919050565b60006125c3602583612bd8565b91507f596f7520617265206e6f7420746865206f776e6572206f66207468697320636f60008301527f6d70616e790000000000000000000000000000000000000000000000000000006020830152604082019050919050565b6000612629602583612bd8565b91507f4e6f7420656e6f7567682066756e64732073747265616d656420627920656d7060008301527f6c6f7965720000000000000000000000000000000000000000000000000000006020830152604082019050919050565b600061268f601483612bd8565b91507f4f6e6c7920434641763120737570706f727465640000000000000000000000006000830152602082019050919050565b60006126cf602f83612bd8565b91507f556e737570706f727465642063616c6c6261636b202d204265666f726520416760008301527f7265656d656e74207570646174656400000000000000000000000000000000006020830152604082019050919050565b6000612735602f83612bd8565b91507f556e737570706f727465642063616c6c6261636b202d204265666f726520416760008301527f7265656d656e74204372656174656400000000000000000000000000000000006020830152604082019050919050565b600060a08301600083015184820360008601526127ab82826123b1565b91505060208301516127c06020860182612393565b5060408301516127d3604086018261228b565b5060608301516127e6606086018261232d565b5060808301516127f9608086018261232d565b508091505092915050565b600060208201905061281960008301846122a9565b92915050565b6000602082019050818103600083015261283981846122b8565b905092915050565b6000602082019050818103600083015261285b818461233c565b905092915050565b60006060820190506128786000830185612375565b818103602083015261288a818461233c565b9050818103604083015261289d816124b6565b90509392505050565b60006040820190506128bb6000830185612384565b6128c860208301846122a9565b9392505050565b60006080820190506128e46000830187612384565b6128f1602083018661229a565b6128fe60408301856123a2565b8181036060830152612910818461233c565b905095945050505050565b60006080820190506129306000830187612384565b61293d60208301866122a9565b61294a604083018561229a565b818103606083015261295c818461233c565b905095945050505050565b600060808201905061297c6000830187612384565b61298960208301866122a9565b61299660408301856123a2565b81810360608301526129a8818461233c565b905095945050505050565b60006020820190506129c860008301846123a2565b92915050565b600060208201905081810360008301526129e7816123ea565b9050919050565b60006020820190508181036000830152612a0781612450565b9050919050565b60006020820190508181036000830152612a27816124f6565b9050919050565b60006020820190508181036000830152612a4781612536565b9050919050565b60006020820190508181036000830152612a6781612576565b9050919050565b60006020820190508181036000830152612a87816125b6565b9050919050565b60006020820190508181036000830152612aa78161261c565b9050919050565b60006020820190508181036000830152612ac781612682565b9050919050565b60006020820190508181036000830152612ae7816126c2565b9050919050565b60006020820190508181036000830152612b0781612728565b9050919050565b6000604051905081810181811067ffffffffffffffff82111715612b3157600080fd5b8060405250919050565b600067ffffffffffffffff821115612b5257600080fd5b601f19601f8301169050602081019050919050565b6000819050602082019050919050565b600081519050919050565b600081519050919050565b600081519050919050565b6000602082019050919050565b600082825260208201905092915050565b600082825260208201905092915050565b600082825260208201905092915050565b600082825260208201905092915050565b6000612bf482612c42565b9050919050565b6000612c0682612c42565b9050919050565b60008115159050919050565b6000819050919050565b6000612c2e82612be9565b9050919050565b600081600b0b9050919050565b600073ffffffffffffffffffffffffffffffffffffffff82169050919050565b6000612c6d82612c74565b9050919050565b6000612c7f82612c42565b9050919050565b6000612c9182612c98565b9050919050565b6000612ca382612c42565b9050919050565b60005b83811015612cc8578082015181840152602081019050612cad565b83811115612cd7576000848401525b50505050565b6000601f19601f8301169050919050565b612cf781612be9565b8114612d0257600080fd5b50565b612d0e81612c19565b8114612d1957600080fd5b50565b612d2581612c23565b8114612d3057600080fd5b50565b612d3c81612c35565b8114612d4757600080fd5b5056fea26469706673582212200a4f598bc5118405aa8bd00b2d1c6911611a540a9edf68f434314772bc87aa3764736f6c63430007000033a2646970667358221220c57b5f702f343b9b0ac626a418e69426a7b297626e4fb7812e70e2d59adc516864736f6c63430007000033",
    "immutableReferences": {},
    "source": "// SPDX-License-Identifier: MIT\npragma solidity ^0.7.0;\npragma experimental ABIEncoderV2;\n\nimport \"./CompanyContract.sol\";\n\ncontract WorkCD {\n    address _owner;\n\n    Company[] public companies;\n\n    ISuperfluid private _host; // host\n    IConstantFlowAgreementV1 private _cfa; // the stored constant flow agreement class address\n    ISuperToken private _acceptedToken; // accepted token\n\n    struct Company {\n        string name;\n        CompanyContract compContract;\n        bool exists;\n        uint256 id;\n        address owner;\n    }\n\n    constructor(\n        ISuperfluid host,\n        IConstantFlowAgreementV1 cfa,\n        ISuperToken acceptedToken,\n        address owner\n    ) {\n        assert(address(host) != address(0));\n        assert(address(cfa) != address(0));\n        assert(address(acceptedToken) != address(0));\n\n        _owner = owner;\n\n        _host = host;\n        _cfa = cfa;\n        _acceptedToken = acceptedToken;\n    }\n\n    function getCompanies() external view returns (Company[] memory) {\n        return companies;\n    }\n\n    function createCompany(string calldata _name) external {\n        CompanyContract comContract = new CompanyContract(\n            _host,\n            _cfa,\n            _acceptedToken,\n            msg.sender\n        );\n        companies.push(\n            Company({\n                name: _name,\n                exists: true,\n                compContract: comContract,\n                id: companies.length,\n                owner: msg.sender\n            })\n        );\n    }\n}\n",
    "sourcePath": "/home/marten/WORKSPACE/WorkCD/superApp/contracts/WorkCD.sol",
    "compiler": {
        "name": "solc",
        "version": "0.7.0+commit.9e61f92b.Emscripten.clang"
    },
    "schemaVersion": "3.4.3",
    "updatedAt": "2021-10-08T12:10:30.474Z",
    "networkType": "ethereum",
    "devdoc": {
        "kind": "dev",
        "methods": {},
        "version": 1
    },
    "userdoc": {
        "kind": "user",
        "methods": {},
        "version": 1
    }
}